:10000000D2C3000001C40000FFC30000FDC3000014
:10001000FBC30000F9C30000F7C30000F5C30000F4
:10002000F3C30000F1C30000EFC30000EDC3000004
:10003000EBC30000E9C30000E7C30000E5C3000014
:10004000E3C30000E1C30000DFC30000DDC3000024
:10005000DBC30000D9C30000D7C300000C94CD0B54
:10006000D3C300000C94500E0C94270ECDC3000097
:10007000CBC30000C9C30000C7C30000C5C3000054
:10008000C3C30000C1C30000BFC30000BDC3000064
:10009000BBC30000B9C30000B7C30000B5C3000074
:1000A000B3C30000B1C30000AFC30000ADC3000084
:1000B000ABC30000A9C30000A7C30000A5C3000094
:1000C000A3C30000A1C300009FC300009DC30000A4
:1000D0009BC3000099C3000097C3000095C30000B4
:1000E00093C30000B311BC11D311071226124013A1
:1000F000E313E313E313E313E31318143014F614B8
:100100005C172A18B5186819E009E309D209D6095D
:10011000DA091A0AE709EB09F109F509F909FF09F2
:10012000030A070A1A0A0D0A110A150A000022001A
:10013000250028002B002E003100340002010000B1
:10014000050108010B010505050507050808080854
:10015000020202020A0A080804040404010101015F
:10016000010101010303030303030303040707075A
:100170000C0C0C0C0C0C0C0C0202020206060606FF
:10018000060606060B0B0B0B0B0B0B0B01021020CC
:1001900020080810204010204080020102010804BD
:1001A0000201010204081020408080402010080451
:1001B00002018004020180402010080402010804AA
:1001C00002010102040810204080010204081020EE
:1001D000408000000A0B02090C0D0E080703040101
:1001E000000000000000000000000000000000000F
:1001F00000000000000000000000000000001211DC
:1002000010000000000000000000000000000000DE
:100210000000000000000000000000FF550000008A
:10022000AAFFFF00FF000000000101010001010121
:1002300001010101030101010401010104020101A5
:100240000502010107030101080401010906020179
:10025000090702010A0903010C0A03010D0B03013E
:100260000D0C03010E0C03010F0C0301110B030114
:10027000120A0301120A03011309030115080201FE
:1002800016070201170702011707020118070201EA
:100290001A0702011B0702011B0702011C070201CA
:1002A0001D0702011F0702012007020120080201A9
:1002B00021090201230A020105500F01CF4F0E014F
:1002C000D04E0E01D04D0E01D14B0E01D34B0D017E
:1002D000D44A0D01D54A0D01D54A0D01D64A0D016A
:1002E000D84A0D01D94A0D01D94A0D01DA4B0D0149
:1002F000DB4B0D01DD4A0C00DE4A0C00DE490C0030
:10030000DF470B00E1440A00E2420A00E3400A0032
:10031000E33C0A00E4390900E6350901E732090146
:10032000E72F0901E82D0901E92A0901EB29090153
:10033000EC270A01EC270A01ED270A01EF270B0140
:10034000F0280C01F1290D01F12B0E01F22D0F0106
:10035000F42E1001F52F1101F5311201F6321201C0
:10036000F7341301F9351401FA361501FA3615017F
:10037000FB371501FD371501FE381601FF38160150
:10038000000021FF3F2A732D7FFFFF00BFFF3700D2
:10039000FFFF000000640000006400002F6B5500A8
:1003A0000064000000800000228B2200238E6B007E
:1003B00000800000578B2E00AACD660032CD32009F
:1003C00032CD9A0090EE900000FC7C00AACD660031
:1003D000228B2200FF0000008B0000008B00000039
:1003E0008B0000008B0000008B0000008B000000E1
:1003F0008B000000FF0000008B000000EBCE8700A8
:10040000EBCE8700E6D8AD00FFFFFF00E6D8AD00D9
:10041000EBCE8700001A01597F11C100D80022627B
:10042000FF002262000000000000330000006600B0
:10043000000099000000CC000000FF000033FF0026
:100440000066FF000099FF0000CCFF0000FFFF00E6
:1004500033FFFF0066FFFF0099FFFF00CCFFFF00A6
:10046000FFFFFF000000000000008000000000000F
:100470000000800000008B000000800000008B0066
:1004800000008B0000008B000000FF0000A5FF00B3
:10049000FFFFFF0000A5FF000000FF0000008B0031
:1004A00000000000AB0055007C0084004B00B5004C
:1004B0001B00E5000017E8000047B8000077AB001C
:1004C00000ABAB000055AB000022DD000E00F200D7
:1004D0003E00C20071008F00A1005F00D0002F001D
:1004E000F9070000701919008B000000701919003D
:1004F000800000008B000000CD000000578B2E0014
:1005000080800000A09E5F00FF0000008B8B000039
:10051000ED956400D4FF7F00578B2E00FFFF000095
:10052000FACE87000000FF00000000000055AB007D
:100530000000000000ABAB000000000000FF000066
:100540000000000055AB000000000000FF000000AC
:1005500000000000AB005500000000005500AB009B
:10056000000000000000FF00002AD5000055AB008D
:10057000007FAB0000ABAB0000D5560000FF0000D1
:100580002AD5000055AB0000AA560000FF0000006D
:10059000D5002A00AB00550081007F005500AB005C
:1005A0002B00D500000E1600040E6800080EFF0098
:1005B0000C581600105868001458FF0018FF160059
:1005C0001CFF680020FFFF002400162C2800682C68
:1005D0002C00FF2C300E002C340E162C380E682CFC
:1005E0003C0EFF2C4058002C4458162C4858682CC0
:1005F0004C58FF2C50FF002C54FF162C59FF682C30
:100600005DFFFF2C610016FF650068FF6900FFFFBA
:100610006D0E00FF710E16FF750E68FF790EFFFF5D
:100620007D5800FF815816FF855868FF8958FFFFE5
:100630008DFF00FF91FF16FF95FF68FF99020000F4
:100640009D0E0000A1290000A5580000AA9D0000F1
:10065000AEFF0000B2000400B6001600BA0037007A
:10066000BE006800C200A900C600FF00CA00000268
:10067000CE00000FD200002CD600005CDA0000A0F3
:10068000DE0000FFE2000000E6010301EA090F0AB4
:10069000EE1B271EF23A493EF66A796DFAA9B4AC10
:1006A000FFFFFFFF000000FF0400370008FF00000D
:1006B0000C00877B1078007B1478870018060B07E6
:1006C0001C0000FF2000370024FF00002800877B6B
:1006D0002C78007B3078870034060B07380000FF49
:1006E0003C00370040FF00004400877B4878007BD7
:1006F0004C78870050060B07540000FF5900370064
:100700005DFF00006100877B6578007B697887006A
:100710006D060B07710000FF7500370079FF0000C0
:100720007D00877B8178007B8578870089060B07B1
:100730008D0000FF9100370095FF00009900877B36
:100740009D78007BA1788700A5060B07AA0000FF13
:10075000AE003700B2FF0000B600877BBA78007B9E
:10076000BE788700C2060B07C60000FFCA0037002C
:10077000CEFF0000D200877BD678007BDA78870036
:10078000DE060B07E20000FFE6003700EAFF00008C
:10079000EE00877BF278007BF6788700FA060B077D
:1007A000FF0000FF6E1911241FBECFEFD1E2DEBFA4
:1007B000CDBF00E00CBF12E0A0E0B2E0E0E9FBE357
:1007C00000E00BBF02C007900D92AE3DB107D9F714
:1007D00028E0AEEDB2E001C01D92A738B207E1F704
:1007E00013E0C3EDD3E000E006C021970109802F9C
:1007F000FE010E94A01DC23DD10780E00807A9F7B5
:100800000E94D20F0C94C61DFBCB80E991E00895A5
:10081000E1E0F1E0808188608083089580E090E0ED
:100820000895FC01858596850895CF93DF9300D0C8
:1008300000D0CDB7DEB7AB011C821D821E82DC0169
:10084000ED91FC910190F081E02D19821A821B82BA
:100850009E012F5F3F4FBE016C5F7F4F199526961B
:100860000FB6F894DEBF0FBECDBFDF91CF910895D4
:100870006F927F928F929F92AF92BF92CF92DF92B0
:10088000EF92FF920F931F93CF93DF933C01EB0105
:1008900004D6F30127853089621B730B6A3071051A
:1008A000B8F3F894E881F981509102015860809181
:1008B0000201877F80930201EA849F812E2D291BEC
:1008C000922F2F83DF84AA81BB816D857C85FE8476
:1008D0006F5F7F5FF3943E814885B984AB8411815B
:1008E00020E0C32E022F322F31811127889431113D
:1008F000390F08F43FEF9195889460FD130F179519
:10090000889461FD130F1795889462FD130F179556
:10091000889463FD130F1795889464FD130F179542
:10092000889465FD130F1795889466FD130F17952E
:10093000889467FD130F17958894232F6111212F39
:100940009E0D122F002C50930201002C17FF809354
:10095000020130812227889400C000C080930201E8
:1009600031113C0D00C050930201002C16FF809302
:10097000020108F43FEFC194889400C000C0809346
:10098000020170FD230F00C050930201002C15FFDF
:10099000809302012795889471FD230F00C000C049
:1009A000809302012795889400C050930201002C87
:1009B00014FF8093020172FD230F2795889400C0D5
:1009C00000C08093020173FD230F00C05093020109
:1009D000002C13FF809302012795889474FD230F48
:1009E00000C000C0809302012795889400C05093F6
:1009F0000201002C12FF8093020175FD230F279541
:100A0000889400C000C08093020176FD230F00C0CF
:100A100050930201002C11FF8093020127958894C6
:100A200077FD230F00C000C08093020127958894B2
:100A300000C050930201002C10FF80930201132F7D
:100A40007111122FCB0C00C000C08093020100C0B6
:100A500000C050930201002C17FF809302013281E5
:100A60002227889400C000C0809302013111340F06
:100A700000C050930201002C16FF8093020108F47D
:100A80003FEFED0DF11D00C000C080930201F0FCAE
:100A9000230F00C050930201002C15FF8093020128
:100AA00027958894F1FC230F00C000C080930201B9
:100AB0002795889400C050930201002C14FF809366
:100AC0000201F2FC230F2795889400C000C0809398
:100AD0000201F3FC230F00C050930201002C13FF0E
:100AE0008093020127958894F4FC230F00C000C076
:100AF000809302012795889400C050930201002C36
:100B000012FF80930201F5FC230F2795889400C003
:100B100000C080930201F6FC230F00C05093020135
:100B2000002C11FF8093020127958894F7FC230F76
:100B300000C000C0809302012795889400C05093A4
:100B40000201002C10FF80930201132FF110122FCD
:100B5000419500C000C0809302014A0D00C0002CE6
:100B600050930201002C17FF80930201318122274C
:100B7000889400C000C0809302013111390F00C079
:100B800050930201002C16FF8093020108F43FEFFE
:100B90009195889400C000C08093020160FD230FEE
:100BA00000C050930201002C15FF8093020127958D
:100BB000889461FD230F00C000C080930201279537
:100BC000889400C050930201002C14FF809302010E
:100BD00062FD230F2795889400C000C08093020116
:100BE00063FD230F00C050930201002C13FF80937C
:100BF00002012795889464FD230F00C000C08093F4
:100C000002012795889400C050930201002C12FF26
:100C10008093020165FD230F2795889400C000C0D2
:100C20008093020166FD230F00C050930201002C47
:100C300011FF809302012795889467FD230F00C060
:100C400000C0809302012795889400C05093020150
:100C5000002C10FF80930201132F6111122F9E0DA3
:100C600000C000C080930201119709F06CCE4A8148
:100C70005B8120EE31E0DA010E94A81DDC01CB018E
:100C800064E0B695A795979587956A95D1F760E04A
:100C900070E09B01EAE94E9F212D5E9F200D311DE2
:100CA0001124820F931FA11DB11D893EE3E09E0711
:100CB000A105B10588F1885E9340A109B10922E040
:100CC000B695A795979587952A95D1F727E0829FA6
:100CD000612D929F600D711D11242091E20230E080
:100CE000820F931F860F971F4091F7045091F804CD
:100CF0006091F9047091FA04292F3327420F531F92
:100D0000611D711D4093F7045093F8046093F9043A
:100D10007093FA048093E2027894BFD3F301708B4E
:100D20006787DF91CF911F910F91FF90EF90DF9038
:100D3000CF90BF90AF909F908F907F906F900895CD
:100D40000F931F93CF93DF93CDB7DEB762970FB6A4
:100D5000F894DEBF0FBECDBF8C01F901DC011C96FB
:100D60008C917A8369835C834B835E834D8390810E
:100D70009D8791819E8792819F87813029F4CE0142
:100D800001960E94FD0E06C01C861B861A861986D7
:100D900018861F8283E0888B1A8A198AD801ED9100
:100DA000FC910484F585E02DBE016F5F7F4FC80183
:100DB000199562960FB6F894DEBF0FBECDBFDF91D6
:100DC000CF911F910F9108950F931F93CF93DF93AE
:100DD000CDB7DEB762970FB6F894DEBF0FBECDBFBA
:100DE0008C01F901DC011C968C917A8369835C8308
:100DF0004B835E834D8390819D8791819E879281F5
:100E00009F87813021F4CE010196F7D706C01C865A
:100E10001B861A86198618861F82188A1A8A198ACA
:100E2000D801ED91FC910484F585E02DBE016F5F42
:100E30007F4FC801199562960FB6F894DEBF0FBEBA
:100E4000CDBFDF91CF911F910F910895CF92DF9287
:100E5000EF92FF9281E402D36C019093E1028093C0
:100E6000E00282E4FBD27C019093DF028093DE02F9
:100E7000E1EBF0E0C601BF010E948D1D9B01709364
:100E8000EB026093EA02C701BF010E948D1D7093BF
:100E9000E4026093E30286E0869FF001879FF00DF5
:100EA0001124E20FF31FEE0FFF1FEA5FFD4F808159
:100EB00091819093A9038093A80387E3CFD2092E51
:100EC000000CAA0BBB0B9C01AD0126503109410956
:100ED0005109AFEFB0E00E94161B2FEEC22E23E0A7
:100EE000D22EE12CF12CA70196010E94FA1A309320
:100EF000A3032093A20388E3B1D2092E000CAA0B0E
:100F0000BB0B9C01AD012650310941095109AFEFDE
:100F1000B0E00E94161BA70196010E94FA1A3093B6
:100F2000A5032093A40389E399D2092E000CAA0BF0
:100F3000BB0B9C01AD012650310941095109AFEFAE
:100F4000B0E00E94161BA70196010E94FA1A309386
:100F5000A7032093A6038AE381D2092E000CAA0BD3
:100F6000BB0B9C01AD012650310941095109AFEF7E
:100F7000B0E00E94161BA70196010E94FA1A309356
:100F8000A1032093A0038BE369D2092E000CAA0BC6
:100F9000BB0B9C01AD012650310941095109ABE958
:100FA000B0E00E94161BA70196010E94FA1A309326
:100FB000E6022093E50287E351D2092E000CAA0B2A
:100FC000BB0B9C01AD012650310941095109AFEF1E
:100FD000B0E00E94161BA70196010E94FA1A209306
:100FE000E70288E33BD2092E000CAA0BBB0B9C0145
:100FF000AD012650310941095109AFEFB0E00E941F
:10100000161BA70196010E94FA1A2093E80289E3B1
:1010100025D2092E000CAA0BBB0B9C01AD0126505A
:10102000310941095109AFEFB0E00E94161BA70139
:1010300096010E94FA1A2093E902FF90EF90DF9048
:10104000CF90089503DF8091E5028093CA058EC298
:1010500020E030E0F901E451FD4F80836183428359
:101060002D5F3F4F243B3105A9F7ECCFDB01029602
:1010700020E030E0FD01E20FF31F459155916591AD
:101080007491FC013297608331965083FC01408358
:101090002C5F3F4F03962034310561F70895FC0122
:1010A0002081269F020E20E0211D20832181269F82
:1010B000020E20E0211D21832281269F020E20E0C6
:1010C000211D228311240895CF93DF93CCEED2E02B
:1010D0006091A603CE01E3DF239683E0C03AD807F0
:1010E000B9F7DF91CF910895CF92DF92EF92FF92FF
:1010F0001F93CF93DF93EC012DD2C880D980EA8073
:10110000FB80DC01CB018C199D09AE09BF0911E000
:10111000CC80DD80EE80FF808C159D05AE05BF057F
:1011200010F410E002C0CE015DD6812FDF91CF9187
:101130001F91FF90EF90DF90CF90089520E330E073
:101140004DEF54E0FC01DA0120FF05C002C0019020
:101150000D9201900D922250D0F73040C0F7CA0195
:101160000895009761F0FC0101900020E9F73197A4
:10117000AF01481B590BBC018DE295E058C380E0DC
:1011800090E008958F929F92AF92BF920F931F931A
:10119000CF93DF93CDB7DEB7A1970FB6F894DEBF3C
:1011A0000FBECDBF19A2423008F44AE08E010F5D98
:1011B0001F4F842E912CA12CB12CA50194010E94CB
:1011C000261BE62FB901CA0101501109EA3014F4B7
:1011D000E05D01C0E95CD801EC93232B242B252B87
:1011E00061F7C801BEDFA1960FB6F894DEBF0FBE4F
:1011F000CDBFDF91CF911F910F91BF90AF909F9086
:101200008F900895CF92DF92EF92FF92CF93DF936A
:101210006B017C01E0912D05F0912E050190F0818C
:10122000E02D6DE28DE295E01995EC0166277727B8
:10123000CB016C197D098E099F094AE0A3DF8C0F51
:101240009D1FDF91CF91FF90EF90DF90CF90089599
:1012500088CFBC01990F880B990B97FDD3CF4AE03B
:1012600091CFFB01DC014C9111965C91342F3F71C1
:10127000330F330F832F880F35E5282F239F020E5E
:1012800020E0211D1124642F6074942F907247FD7B
:1012900021C061110BC0911104C0822F8095422F93
:1012A00011C045E5420F30E02BEA33C091110DC06B
:1012B000382F4AEA349F030E30E0311D11248BEAA7
:1012C000831B420F282F30E024C080E0422F40953E
:1012D000322F0EC0611111C091110CC0382F2AEAB3
:1012E000329F030E30E0311D11244BEA431B3B5A61
:1012F00020E00FC0322F30950BC0911104C085E55E
:10130000820F3BEA03C08AEA820F90E0321B282F4B
:1013100040E05F3F11F15523E9F0222321F0259FA2
:10132000020E20E0211D442321F0459F040E40E0E1
:10133000411D332321F0359F030E30E0311D112470
:101340005095559F050E50E0511D1124250F450F56
:10135000350F03C03FEF4FEF2FEF208341833283E0
:101360000895362F90E0FC01EE52FE4F4491FC01AF
:10137000E457FE4F2491FC01EA5BFE4F94919923C0
:1013800009F46BC0442309F455C050E0FA013197C9
:10139000E231F10508F04EC08827EC57FF4F8F4F20
:1013A0000C94A01D809180008F7707C080918000F1
:1013B0008F7D03C080918000877F809380003AC03A
:1013C00084B58F7702C084B58F7D84BD33C0809192
:1013D000B0008F7703C08091B0008F7D8093B00004
:1013E00029C0809190008F7707C0809190008F7DF9
:1013F00003C080919000877F809390001BC08091F4
:10140000A0008F7707C08091A0008F7D03C08091DE
:10141000A000877F8093A0000DC0809120018F776E
:1014200007C0809120018F7D03C080912001877FBC
:1014300080932001E92FF0E0EE0FFF1FE45DFE4FE7
:10144000A591B4918FB7F894EC91311103C0209518
:101450002E2301C02E2B2C938FBF0895863308F0C6
:10146000865390917B00282F2870977F922B909322
:101470007B008770806480937C0080917A00806418
:1014800080937A0080917A0086FDFCCF809178006D
:101490002091790090E0922B08953FB7F8948091C5
:1014A000780890917908A0917A08B0917B0826B5C8
:1014B000A89B05C02F3F19F00196A11DB11D3FBF8C
:1014C000BA2FA92F982F8827820F911DA11DB11D1A
:1014D000BC01CD0142E0660F771F881F991F4A9516
:1014E000D1F708958F929F92AF92BF92CF92DF92E1
:1014F000EF92FF926B017C01D0DF4B015C01C114C4
:10150000D104E104F104E9F0C8DFDC01CB01881962
:101510009909AA09BB09883E9340A105B10578F352
:1015200021E0C21AD108E108F10888EE880E83E0B4
:10153000981EA11CB11CC114D104E104F10421F7CF
:10154000DECFFF90EF90DF90CF90BF90AF909F9055
:101550008F9008952FB7F8946091F7047091F80474
:101560008091F9049091FA042FBF08953F924F9211
:101570005F926F927F928F929F92AF92BF92CF9223
:10158000DF92EF92FF920F931F93CF93DF9300D0E0
:10159000CDB7DEB7F82E8091CD059091CE05A09104
:1015A000CF05B091D005892B8A2B8B2BE1F075DF0D
:1015B0000091820810918308209184083091850859
:1015C000DC01CB01801B910BA20BB30B0091CD056D
:1015D0001091CE052091CF053091D005801791074D
:1015E000A207B307C0F259DF6093820870938308A3
:1015F0008093840890938508E091D505F091D605F5
:10160000309759F04091D1055091D2056091D305A2
:101610007091D4058F2D1995F82E0091FB0410912F
:10162000FC044F2C512C612C712C0115110509F46F
:1016300061C0D8011C96EC901C978091CB059091CD
:10164000CC058436910510F41C961C92D801ED91BE
:10165000FC91A280B38019821A821B82F11014C0FF
:10166000F80145855685628173819E012F5F3F4F4A
:10167000C801F5011995D8011C96EC921C97149697
:101680000D911C911597D1CFF8013996CE01019695
:101690006C0148019CE0890E911CDF0113973C907E
:1016A0002191332001F12223F1F0822F90E0A0E07C
:1016B000B0E09C01AD012F5F3F4F4F4F5F4FC30123
:1016C000B2010E94721D9B01AC01832D90E0A0E04D
:1016D000B0E0BC01CD016F5F7F4F8F4F9F4F0E94E5
:1016E000721DD6018C93BFEFCB1ADB0AE815F90502
:1016F000A1F6B6CF80918008909181088C010F5F90
:101700001F4F109381080093800849978CF122DFC6
:101710004B015C0188EE93E0089FB001099F700DBA
:10172000189F700D1124072E000C880B990BC09088
:101730007C08D0907D08E0907E08F0907F08A5019D
:1017400094012C193D094E095F090E94261B309314
:10175000CC052093CB051092810810928008FADE08
:1017600060937C0870937D0880937E0890937F0837
:101770000F900F900F90DF91CF911F910F91FF90DD
:10178000EF90DF90CF90BF90AF909F908F907F9021
:101790006F905F904F903F9008951F920F920FB6F9
:1017A0000F9211242F933F938F939F93AF93BF93E7
:1017B0008091F7049091F804A091F904B091FA0493
:1017C0003091770823E0230F2D3720F40196A11DD7
:1017D000B11D05C026E8230F0296A11DB11D20935F
:1017E00077088093F7049093F804A093F904B093DA
:1017F000FA048091780890917908A0917A08B091C4
:101800007B080196A11DB11D8093780890937908FB
:10181000A0937A08B0937B08BF91AF919F918F916D
:101820003F912F910F900FBE0F901F901895CF9260
:10183000DF92EF92FF920F931F93CF93DF936C0190
:101840007A018B01C0E0D0E0CE15DF0589F0D80128
:101850006D918D01D601ED91FC910190F081E02D0B
:10186000C6011995892B11F47E0102C02196ECCF97
:10187000C701DF91CF911F910F91FF90EF90DF9003
:10188000CF900895089580E090E00895FC01538D75
:10189000448D252F30E0842F90E0821B930B54174A
:1018A00010F0CF96089501970895FC01918D828DD7
:1018B000981761F0828DDF01A80FB11D5D968C91A4
:1018C000928D9F5F9F73928F90E008958FEF9FEFAF
:1018D0000895FC01918D828D981731F0828DE80F6B
:1018E000F11D858D90E008958FEF9FEF0895FC0125
:1018F000918D228D892F90E0805C9F4F821B9109F2
:101900008F73992708958DE295E0F1DF21E0892B0F
:1019100009F420E0822F0895FC01848DDF01A80FD7
:10192000B11DA35ABF4F2C91848D90E001968F7307
:101930009927848FA689B7892C93A089B1898C9126
:1019400080648C93938D848D981306C00288F389EC
:10195000E02D80818F7D80830895EF92FF920F9319
:101960001F93CF93DF93EC0181E0888F9B8D8C8D4B
:10197000981305C0E889F989808185FD23C0F62E7A
:101980000B8D10E00F5F1F4F0F731127E02E8C8D12
:10199000E8120BC00FB607FCFACFE889F9898081FD
:1019A00085FFF5CFCE01B8DFF2CF8B8DFE01E80FBA
:1019B000F11DE35AFF4FF0820B8FEA89FB8980818A
:1019C000806207C0EE89FF896083E889F989808198
:1019D0008064808381E090E0DF91CF911F910F912F
:1019E000FF90EF900895CF93DF93EC01888D8823CB
:1019F000C1F0EA89FB89808185FD05C0A889B98984
:101A00008C9186FD0EC00FB607FCF5CF808185FF57
:101A1000F2CFA889B9898C9185FFEDCFCE017CDF0B
:101A2000E8CFDF91CF91089580E090E0892B19F005
:101A30006ADF811125C080E090E0892B41F080E0D1
:101A400090E0892B21F00E94000081111CC080E0F1
:101A500090E0892B41F080E090E0892B21F00E94FA
:101A60000000811113C080E090E0892BA1F080E09C
:101A700090E0892B81F00E94000081110AC0089536
:101A80000E940000D8CF0E940000E1CF0E94000019
:101A9000EACF0C94000008950E94C21D2F923F923D
:101AA0004F925F926F927F928F929F92AF92BF926E
:101AB000CF92DF92EF92FF920F931F93CF93DF931A
:101AC000CDB7DEB729970FB6F894DEBF0FBECDBFF6
:101AD000898749835A836B837C830091FB0410912F
:101AE000FC04ADE74A2E512C612C712C0115110517
:101AF00009F46FC0D801ED91FC910084F185E02DCF
:101B0000C80119951C01F801A281B3811296C12C5C
:101B1000D12C7601812C912C540120E030E0A901D8
:101B20000097A9F0FD0132976081260F311D411DFC
:101B3000511D31966081860E911CA11CB11C6C91C7
:101B4000C60ED11CE11CF11C01971396E9CFA0E54C
:101B5000B0E00E94161B6D837E838F839887A7E376
:101B6000B0E0A50194010E94161B4B015C01ABE49F
:101B7000B0E0A70196010E94161B472F582F692F2E
:101B80007727F5E0F29D9001F39D300D11248D81B2
:101B90009E81AF81B885C92EDA2EEB2EFF24C20EAE
:101BA000D31EE11CF11C4C0C5D1C6E1C7F1C892C8F
:101BB0009A2CAB2CBB24480C591C6A1C7B1C440E71
:101BC000551E661E771ED80114960D911C9115970F
:101BD0008DCFB985CB2ED12CE12CF12CA301920114
:101BE000C701B6010E94721D872E982EA92EBB2414
:101BF00089819A81AB81BC8188169906AA06BB06A9
:101C000060F0A7019601BC01CD010E94721DA501E3
:101C100094010E94261B822F01C0898529960FB648
:101C2000F894DEBF0FBECDBFDF91CF911F910F9112
:101C3000FF90EF90DF90CF90BF90AF909F908F90EC
:101C40007F906F905F904F903F902F9008951F92DC
:101C50000F920FB60F9211240BB60F922F933F9352
:101C60004F935F936F937F938F939F93AF93BF93A4
:101C7000EF93FF938DE295E04FDEFF91EF91BF91DF
:101C8000AF919F918F917F916F915F914F913F9114
:101C90002F910F900BBE0F900FBE0F901F901895B5
:101CA0001F920F920FB60F9211240BB60F922F9323
:101CB0008F939F93EF93FF93E0913D05F0913E0545
:101CC0008081E0914305F091440582FD12C090812E
:101CD000809146058F5F8F7320914705821751F0E1
:101CE000E0914605F0E0E35DFA4F958F809346055D
:101CF00001C08081FF91EF919F918F912F910F9063
:101D00000BBE0F900FBE0F901F9018950F931F934F
:101D1000CF93DF93E801142F12951F704F70FB01D2
:101D2000312F330F310FDB01A30FB11D442319F005
:101D300071E0CD2B09F470E06C9111965C911197D4
:101D400012963C911297772309F427C01F3011F0A7
:101D5000FD0133964295407F142F10957081619F4D
:101D6000060E60E0611D749F070E70E0711D670F25
:101D70007181519F050E50E0511D749F070E70E058
:101D8000711D570F7281319F030E30E0311D749F1A
:101D9000070E70E0711D370F11242F3FD1F0222361
:101DA000A9F02F5F662321F0629F060E60E0611D9F
:101DB000552321F0529F050E50E0511D332321F091
:101DC000329F030E30E0311D112403C030E050E09B
:101DD00060E0FC01608351833283DF91CF911F91DA
:101DE0000F910895CF93DF93EC01B4DB688379837F
:101DF0008A839B83DF91CF910895EF92FF920F9397
:101E00001F93CF93DF93EC01909186089F5F292F5A
:101E100027702093860890FF02C090E801C090E0F0
:101E200021FD9064247009F0906220E1290FFE01E9
:101E30003C967E018FE0E80EF11C00E011E061911C
:101E4000662331F070E0C8010E948D1D6F5F01C0F4
:101E500060E0DF0114976C93322F369F030E30E061
:101E6000311D1124CF010797311103C0EC011882F5
:101E700003C03150EC013883662311F061506C933C
:101E8000EE15FF05E1F6DF91CF911F910F91FF90C5
:101E9000EF9008954F925F926F927F928F929F92F0
:101EA000AF92BF92CF92DF92EF92FF920F931F9368
:101EB000CF93DF9300D000D0CDB7DEB75C016B01CC
:101EC000912CF60174E0979EE00DF11D112485918F
:101ED0009591A591B49193948F3F99F7F6018591CF
:101EE0009591A591B4914B2F3A2F592FE12CF12CBC
:101EF00088248A9484E0C80ED11CF6014590559040
:101F000065907490C70124E0959587952A95E1F72F
:101F1000682FE42CF12C242D22952F707FE0791569
:101F200080F0E82D082C000CFF0BE817F90744F0AF
:101F30008EE088152CF061E0680D261708F4262F36
:101F4000822E5C826D827E8259833A834B8330E09D
:101F500070E08E010C5F1F4FAE014F5F5F4FC501F8
:101F60000E94FD19472D362D552D7FEFE716F10400
:101F700009F0C0CFC50126960FB6F894DEBF0FBE9C
:101F8000CDBFDF91CF911F910F91FF90EF90DF9028
:101F9000CF90BF90AF909F908F907F906F905F9009
:101FA0004F900895CF93DF93CDB7DEB7CE54D109CC
:101FB0000FB6F894DEBF0FBECDBF789484B58260B3
:101FC00084BD84B5816084BD85B5826085BD85B5DD
:101FD000816085BD80916E00816080936E0010925B
:101FE00081008091810082608093810080918100D6
:101FF0008160809381008091800081608093800067
:102000008091B10084608093B1008091B0008160C4
:102010008093B000809191008260809391008091C4
:102020009100816080939100809190008160809305
:1020300090008091A10082608093A1008091A10016
:1020400081608093A1008091A00081608093A000B6
:102050008091210182608093210180912101816022
:1020600080932101809120018160809320018091E3
:102070007A00846080937A0080917A0082608093F5
:102080007A0080917A00816080937A0080917A0052
:10209000806880937A001092C100E0913D05F09134
:1020A0003E0582E08083E0913905F0913A05108287
:1020B000E0913B05F0913C058FEC80831092450543
:1020C000E0914105F091420586E08083E0913F0573
:1020D000F0914005808180618083E0913F05F0911F
:1020E0004005808188608083E0913F05F091400544
:1020F000808180688083E0913F05F0914005808178
:102100008F7D808368EE73E080E090E0EBD9809172
:10211000BD03811145C01092AF031092AE038FEF43
:102120008093B2038093B3038093B4038093B50389
:102130008093B6038093B70381E08093B803109235
:10214000BA031092B9031092B1031092B0038091B8
:10215000FB049091FC04892B31F48CEA93E090937A
:10216000FC048093FB04E091AA03F091AB03309749
:1021700021F08CEA93E0958384838CEA93E090933A
:10218000AB038093AA031092BC031092BB0382E6B8
:1021900092E09093AD038093AC0381E08093BD0304
:1021A000E091AC03F091AD030480F581E02D8CEA61
:1021B00093E019958CEE92E09093AF038093AE0379
:1021C0008CE390E09093BA038093B903E091AC0361
:1021D000F091AD030284F385E02D8CEA93E019952C
:1021E000009729F19C0140E050E060E472E48FE048
:1021F00090E00E94FA1A722F632F0091CD05109182
:10220000CE052091CF053091D005872F962FDA018A
:1022100080179107A207B30710F4D901C801809372
:10222000CD059093CE05A093CF05B093D0058FEF49
:102230008093B20380EB8093B30380EF8093B40369
:1022400024E635E080E090E0F901459155916591F3
:102250007491FC01E350FB4F6083518342832C5FF8
:102260003F4F03968033910579F781E090E090939A
:102270003F0480933E048EE49DE09093D6058093C6
:10228000D50580E197E2A0E0B0E08093D10590937E
:10229000D205A093D305B093D4050E94260786E902
:1022A00092E00E94280987E3D9D80E9429098BE986
:1022B00092E00E94280988E3D1D80E94290984EA83
:1022C00092E00E94280989E3C9D80E9429098CEA72
:1022D00092E00E9428098AE3C1D80E94290986EB6E
:1022E00092E00E9428098BE3B9D80E9429098FEB5C
:1022F00092E00E9428098091EA029091EB020E94EC
:10230000290987EC92E00E9428098091E3029091CC
:10231000E4020E9429098FEC92E00E942809609152
:10232000A8037091A903072E000C880B990B97FF47
:1023300003C00E94020903C04AE00E94C2088BED5C
:1023400092E00E94B1088091A8039091A903FC013A
:102350003197E231F10508F032C78827EE58FF4F78
:102360008F4F0C94A01D4091A6036091A40380910F
:10237000A2030E942808ACC70CEE12E0FF24FA94D6
:102380008091A6039091A00399838A83FB82B80170
:10239000CE0101960E9431090D5F1F4F23E0003AE4
:1023A000120771F731C00CEE12E0FF24FA9480910D
:1023B000A603C090F504D090F604C9828A83FB82FC
:1023C000B801CE0101960E9431090D5F1F4F33E025
:1023D000003A130761F789E341D80D2C000CEE0891
:1023E000FF0823E030E0DC010E94A81D2FEF33E05E
:1023F00040E050E00E94FA1AC20ED31EE41EF51E01
:10240000D092F604C092F5040E94220861C78AE3C4
:1024100025D82CE330E0DC010E94A81D2CEF33E02E
:1024200040E050E00E94FA1A8091A6039091A40324
:10243000F901EE0FFF1F2E0F3F1FF901E451FD4F71
:102440002091A203208391838283DECF0CEE12E0E1
:10245000FAE08F2E912CA12CB12CEE24E394A8E06D
:102460007A2EFF24FA94CC24CA94D12C8091DE03D6
:1024700081110DC086ED93E0B5DC8092DA03909275
:10248000DB03A092DC03B092DD03E092DE0386ED75
:1024900093E00E947408882309F43FC089E30E94F6
:1024A0002E0A2C01CE0101969DDC23E030E0D20102
:1024B0000E94A81D2FEF33E040E050E00E94FA1A7E
:1024C00083E090E0A0E0B0E0821B930BA40BB50B7F
:1024D0008D839E83AF83B887FE013196A6EDB3E06E
:1024E000872D01900D928A95E1F789E30E942E0ACB
:1024F0006090D50323E030E0DC010E94A81D2FEF9F
:1025000033E040E050E00E94FA1ADA01C901860D7A
:10251000911DA11DB11D8093D5039091A2038091BF
:10252000D503890F8983FA82FB82B801CE01019617
:102530000E9431090E9422080E9464088091A00331
:102540009091A103B601681B790B072E000C880B34
:10255000990B0E94720A0D5F1F4F43E0003A140767
:1025600009F084CF00E010E06AE0862E912CA12CC7
:10257000B12CEE24E39478E0772EFF24FA94CC2457
:10258000CA94D12C8091CD0381110DC085EC93E0CC
:1025900029DC8092C9039092CA03A092CB03B09227
:1025A000CC03E092CD0385EC93E00E94740888236D
:1025B00009F43EC089E30E942E0A2C01CE01019647
:1025C00011DC23E030E0D2010E94A81D2FEF33E0A0
:1025D00040E050E00E94FA1A83E090E0A0E0B0E012
:1025E000821B930BA40BB50B8D839E83AF83B8879F
:1025F000FE013196A5ECB3E0872D01900D928A95EE
:10260000E1F789E30E942E0A6090D50323E030E0D1
:10261000DC010E94A81D2FEF33E040E050E0EAD734
:10262000DA01C901860D911DA11DB11D8093D5034D
:102630009091A2038091D503890F8983FA82FB824E
:10264000B80163567C4FCE0101960E9431090E9469
:1026500022080E9464088091A0039091A103B60112
:10266000681B790B072E000C880B990B0E94720ACD
:10267000035011090C345FEF150709F083CF28C60A
:102680008091F103811112C089EE93E0ABDB88ECFD
:1026900090E0A0E0B0E08093ED039093EE03A09370
:1026A000EF03B093F00381E08093F10389EE93E0B0
:1026B0000E947408882309F460C080910002909100
:1026C000010225E0E22E28E0F22E8E9D80018F9DF2
:1026D000100D9E9D100D1124075E194C9801ACE35E
:1026E000B0E0D6D74C01AA24BB249092E803809294
:1026F000E7034090A0035090A103C201880F991FE7
:10270000480E591E052C000C66087708CE0101966C
:1027100069DB4D825E826F82788688E0FE013196A9
:10272000A9EEB3E001900D928A95E1F72091E603BE
:102730003091A2030E9DC0010F9D900D1E9D900D26
:102740001124875E994C9093010280930002890FB7
:10275000389FC0011124290F29838FEF8A838B832F
:10276000B401660F771FCB01880D991DBC01645120
:102770007D4FCE0101960E943109F090A6030CEE28
:1027800012E06F2DC8010E944F080D5F1F4F83E0BC
:10279000003A1807B1F789E30E942E0A1091E60368
:1027A00023E030E0DC010E94A81D2FEF33E040E081
:1027B00050E020D7DA01C901810F911DA11DB11D83
:1027C0008093E60385C50E9426072091EA02309196
:1027D000EB02F901EE0FFF1FE858FD4F8081918158
:1027E000220F331FF901E658FD4F60817181A091DE
:1027F000A603B091A4031091A2039C01220F331FE2
:10280000280F391F40E050E08617970764F4FA015B
:10281000E20FF31FEF5BFB4F1083B183A28301969E
:102820004D5F5F4FF1CF64EF71E080E090E00FC447
:102830000E94260780E090E0DC01AF5BBB4FFC010B
:10284000E451FD4F2C91208311962C9111972183F7
:1028500012962C9122830396843B910569F7D4CD7F
:102860008091A0039091A1036FEF70E01B01281AE3
:10287000390A79EF872E73E0972E8401AFD62BE0CB
:1028800030E040E050E0B6D6D8014C91242F30E043
:102890002617370714F41C9204C0842F861BF801F6
:1028A00080830F5F1F4FF4E005331F0739F7E3E321
:1028B000F4E025E334E003E010E08081429190E011
:1028C000840F911D840F911DB8010E948D1DD901A7
:1028D0006E939D01B3E0E93FFB0779F77FD62FEFB9
:1028E00030E040E050E086D66837710581059105FB
:1028F000DCF474D627E030E040E050E07BD68B017A
:1029000007501C4FF801F08069D62FE530E040E019
:1029100050E070D6DC01CB0180569F4FAF4FBF4FC8
:102920006F2D680FD8016C930CEE12E05DEEC52E92
:1029300052E0D52E6EEEE62E62E0F62EBB24BA945F
:10294000F40161914F0170E080E090E0B4D720E0A5
:1029500030E04FE753E414D720E030E04FE353E496
:102960000E940F1D2B013C0120E030E0A9010E94D4
:102970000B1D20E030E040E05FE387FD04C0C301B1
:10298000B20196D603C0C301B20191D661D7862F9A
:10299000880F880F613838F0D801BC92F601B082F8
:1029A000D7018C930FC0613438F0F801B082D601A2
:1029B0008C93F701108206C0D8018C93F601108227
:1029C000D7011C920D5F1F4FB3E0CB0ED11CE3E08B
:1029D000EE0EF11CF3E0003A1F0709F0B1CF0E94A0
:1029E0002208B101330C880B990B31C38AE30E9492
:1029F0002E0A092E000CAA0BBB0BBC01CD0102E074
:102A0000660F771F881F991F0A95D1F72FEF33E0C4
:102A100040E050E0EFD5BA01A9014F5F5F4F6F4F23
:102A20007F4F1A012DB73EB72E963FAF2EAF2E9790
:102A3000CA01880F991F880F991FADB7BEB7A81B91
:102A4000B90B0FB6F894BEBF0FBEADBFEDB7FEB762
:102A500031962496FFAFEEAF24972DB73EB7281BD3
:102A6000390B0FB6F8943EBF0FBE2DBFADB7BEB742
:102A700011962696BFAFAEAF2697EDB7FEB7E81B0F
:102A8000F90B0FB6F894FEBF0FBEEDBF2DB73EB7E2
:102A90002F5F3F4F28963FAF2EAF28979A01220F06
:102AA000331F4DB75EB7421B530B0FB6F8945EBF92
:102AB0000FBE4DBFADB7BEB711962296BFAFAEAF3A
:102AC0002297EDB7FEB7E81BF90B0FB6F894FEBFDF
:102AD0000FBEEDBF2DB73EB72F5F3F4F2A963FAFDA
:102AE0002EAF2A974DB75EB7481B590B0FB6F89417
:102AF0005EBF0FBE4DBF8DB79EB701962C969FAFA0
:102B00008EAF2C979FAB8EAB2896AEADBFAD2897FE
:102B1000B9AFA8AF2696EEADFFAD2697FBAFEAAFF3
:102B200022962EAD3FAD22973FAF2EAF24964EADED
:102B30005FAD24975DAB4CAB2A968EAD9FAD2A97C7
:102B40009DAF8CAF00E010E04101032C000CAA08FF
:102B5000BB08021513050CF067C00E94AA0AACADB1
:102B6000BDAD6D937D938D939D93BDAFACAFACA97F
:102B7000BDA920E030E040E85FE32D933D934D9305
:102B80005D93BDABACABEEADFFAD11921192FFAF5B
:102B9000EEAFAAADBBAD28E03EEB4DE850E42D937F
:102BA0003D934D935D93BBAFAAAFE8ADF9AD1192E4
:102BB000119211921192F9AFE8AFC501B4017BD621
:102BC0006B017C01B801012E000C880B990B73D6A8
:102BD0002B013C01A7019601C701B60120D79B013B
:102BE000AC01C301B201CCD59B01AC0166E676E62F
:102BF00086E69FE35CD5AEA9BFA96D937D938D93C7
:102C00009D93BFABAEAB0F5F1F4FA3CF8AE30E9474
:102C10002E0A8091E5028093CA050E94220840E0B6
:102C200060E080E00E9428088091A8039091A903A9
:102C30000E9709F037C18AE30E942E0A092E000C74
:102C4000AA0BBB0BBC01CD0112E0660F771F881FDA
:102C5000991F1A95D1F72FEF33E040E050E0CAD426
:102C6000DA01C9010196A11DB11D9FAF8EAF289653
:102C7000EEADFFAD2897FBAFEAAF2A962EAD3FAD84
:102C80002A973DAB2CAB2C964EAD5FAD2C975FAB2E
:102C90004EAB26962EAC3FAC269724960EAD1FADBC
:102CA000249722968EAD9FAD22979DAF8CAF19AE23
:102CB00018AE88AD99ADAEADBFAD8A179B070CF0CD
:102CC000B3C00E94AA0AACA9BDA9CD90DD90ED9039
:102CD000FC906C197D098E099F09EBD56B017C0175
:102CE000EAADFBAD6193719381939193FBAFEAAF32
:102CF00020E030E04AE754E443D5D1018D909D9027
:102D0000AD90BC909B01AC018AD623EC35EF4CE929
:102D100050EC85D62B013C01A7019601C501B401F9
:102D20007ED620E030E04AE754E42AD59B01AC018E
:102D3000C301B201BDD47801F8016083718382833D
:102D4000938320E030E0A90117D587FF32C0D80176
:102D50001D921D921D921C921397EEA9FFA920812E
:102D6000318142815381C501B40159D64B015C01C7
:102D7000D1016D937D938D939C9313970E94AA0A22
:102D8000ECA9FDA960837183828393832AE037EDE8
:102D900043E25CE3C501B401EFD487FF0AC028E039
:102DA0003EEB4DE850E4D1012D933D934D935C9360
:102DB00013970C5F1F4F20E030E04CE652E4F70120
:102DC00060817181828193812AD66B017C0120E030
:102DD00030E0A90120D620E030E040E05FE387FD4D
:102DE00004C0C701B60164D403C0C701B6015FD4F3
:102DF0002FD5ACADBDAD6D937D93BDAFACAFE8ADA0
:102E0000F9AD3196F9AFE8AFF4E02F0E311C2EA9E1
:102E10003FA92C5F3F4F3FAB2EAB4CA95DA94C5F48
:102E20005F4F5DAB4CAB45CF8AE30E942E0A092E63
:102E3000000CAA0BBB0BBC01CD01B2E0660F771FE3
:102E4000881F991FBA95D1F72FEF33E040E050E08B
:102E5000D1D3DA01C9010196A11DB11D9C011091C8
:102E6000E9020091E802F090E7022296EEADFFAD94
:102E7000229740E050E0421753070CF0C7CE8191F3
:102E80009191BC01660F771F860F971FDC01A4513B
:102E9000BD4FFC9211960C93119712961C934F5FA5
:102EA0005F4FE9CF2E96EEADFFAD2E970FB6F8949B
:102EB000FEBF0FBEEDBF0CC28091E9022AE0622F77
:102EC00020D6D82E8091E8021CD6C82E8091E70229
:102ED00018D6B82EFCEEEF2EF2E0FF2E00E010E048
:102EE000AAE0AA2E88248A94912C8091A80390911C
:102EF000A9030F9709F0ECC140E060E080E00E9478
:102F000028084091E9025091E8027090E702872D6D
:102F10006A2DF7D5D7018C93F801E451FD4F852F29
:102F2000F0D58183842FEDD5828320E030E0D70176
:102F3000A20FB31F13967C92139714965C93149769
:102F400015964C932D5F3F4F2C30310581F7B78696
:102F5000C08AD18A0E9422088091A0039091A10387
:102F6000B401681B790B072E000C880B990B0E948B
:102F7000720A0D5F1F4FB3E0EB0EF11C023A110510
:102F800009F0B3CF6AE070E080E090E00E94720A3E
:102F90006EE8E62E63E0F62E0CEE12E07AE0A72E45
:102FA00088248A94912C8091A8039091A9030F976B
:102FB00009F08EC140E060E080E00E942808409166
:102FC000E9025091E802A091E7028A2F6A2D99D573
:102FD000F7018083F801ED55FF4F852F92D580834F
:102FE0003196842F8ED5808320E030E0F701E20F08
:102FF000F31FA383548345832D5F3F4F2C3031054E
:10300000A9F7F801EF54FF4FB0823196C082319694
:10301000D0820E9422088091A0039091A103B40164
:10302000681B790B072E000C880B990B0E94720A03
:1030300003501109F3E0EF1AF1082CEEE21622E03A
:10304000F20609F0B0CF6AE070E080E090E00E9404
:10305000720A3EC180913604811111C089E30E9439
:103060002E0A23E030E0DC0173D52FEF33E040E09F
:1030700050E0C0D22093350481E0809336048091E3
:10308000A6039091A70363E070E047D5162F64EA8A
:1030900074E0CE0101960E9436082F961FAF2F973D
:1030A0000E94AA0A6B017C0120E02F963FAD2F976A
:1030B000A8E1B1E0EDD29B01AC01C701B60112D588
:1030C000292F96FD2095E22FEF732F7096FD2F5F2D
:1030D000E695E695E695E670F0E0E059FD4F8181D2
:1030E000829F202D812D112422952F708295807F23
:1030F000282B8081280F97FD219520583FEB239F97
:10310000020E20E0211D112440E4D42ED20E5EEEEA
:10311000E52E52E0F52EC12C30E0409135042D2DE6
:10312000241B230F4C0D01E010E0BE016F5F7F4FA9
:10313000CE01C1962F963FAF2F970E94860EF701C2
:10314000329789A9808331968AA980838BA9D70178
:103150008C932F963FAD2F97365FC394C394B3E003
:10316000EB0EF11C3835C9F6B3C03CEEE32E32E06D
:10317000F32EDD24DA940FEF10E08091A60389830B
:10318000DA82DB82B701CE0101960E9431090E94EA
:1031900022088091A0039091A103B801681B790BCC
:1031A000072E000C880B990B0E94720AE3E0EE0ECA
:1031B000F11CF0EAEF16F3E0FF06F9F689C09C0176
:1031C0002251310940E3429FC001439F900D1124D9
:1031D00089529A4F24E08D3F920721F018F00E9407
:1031E0009E0812C0C09620E330E04DE255E0FC019D
:1031F000DA0120FF05C002C002900E9202900E92EA
:103200002250D0F73040C0F78AE30E942E0A109176
:103210004004092E000CAA0BBB0BBC01CD0123E01E
:10322000660F771F881F991F2A95D1F728EE33E084
:1032300040E050E0DFD1CA01B90164507109810951
:10324000910922E030E040E050E0D4D1DA01C90138
:10325000810F911DA11DB11DD82E80934004E12C3A
:10326000F12C00913E0410913F042FEF4D2D6DEF96
:1032700074E0CE0101960E94860EF701E451FD4FE5
:10328000898180838A8181838B818283D39433E097
:10329000E30EF11C44EBE416F10419F70E94AA0AAC
:1032A0006B017C0161E070E080E090E00E94720AB6
:1032B0008091CA050E94B60A0E94AA0ADC01CB01CD
:1032C0008C199D09AE09BF090A97A105B10550F3F4
:1032D0000E9422080E94140D0C944D11EDE2F5E0BD
:1032E0001382128288EE93E0A0E0B0E0848395839D
:1032F000A683B78388E892E09183808385EC90E091
:103300009587848784EC90E09787868780EC90E0AF
:10331000918B808B81EC90E0938B828B82EC90E0A0
:10332000958B848B86EC90E0978B868B118E128E1A
:10333000138E148EEAECF5E08FEF808312821182F7
:10334000148613868FEF9FEFDC0187839087A18718
:10335000B28764EA76E087ED95E00E944A0F64EA5E
:1033600075E087E096E00E944A0F64E675E087E327
:1033700096E00E94360864E275E087E696E00E94D7
:10338000360864EE74E087E996E00E94360864EA45
:1033900074E087EC96E00E94360864E674E087EFFC
:1033A00096E00E94360864E274E087E297E00E94AB
:1033B000360864E174E087E597E00E944A0F64ED07
:1033C00073E087E897E00E94360864E973E087EBD2
:1033D00097E00E94360860E873E087EE97E00E946D
:1033E0004A0F68E272E087E198E00E944A0F68E1C4
:1033F00072E087E498E00C944A0F2F923F925F921C
:103400006F927F928F929F92AF92BF92CF92DF92F4
:10341000EF92FF920F931F93CF93DF933C01FB0139
:10342000D80126173707D0F46C9111969C9111970B
:1034300012968C911297EA0178817C93798111968A
:103440007C9311977A8112967C9312976883998363
:103450008A839E2F8F2FF901292F382FEA01288088
:10346000312C8C9190E0821993099695982F88279A
:1034700097958795E980F12C1196AC901197B12C16
:10348000AE18BF08B694BA2CAA24B794A794CA80E1
:10349000D12C12960C9110E00C191D091695102FC5
:1034A000002717950795A9014E1B5F0B19F0542EA5
:1034B000452F03C05524539440E0652D742F2DD320
:1034C0004B01C501652D742F28D35B01C801652D03
:1034D000742F23D3880C991CAA0CBB1C660F771F72
:1034E000D22DCC27FE2CEE24DC2CCC24CF01880F4F
:1034F000991F8E0F9F1F0296680E791E2E173F0789
:1035000090F0D3011297DC931196FC92D301DC92D8
:10351000C80DD91DEA0CFB1CC60ED71E3196B3E0B0
:103520006B0E711CEBCFDF91CF911F910F91FF902C
:10353000EF90DF90CF90BF90AF909F908F907F9053
:103540006F905F903F902F9008958F929F92AF92CF
:10355000BF92CF92DF92EF92FF92CF93DF93EC0175
:10356000688179818A819B81611571058105910549
:1035700021F464E279ED8BE597E02DE133EF41E052
:1035800050E038D049015A019B01AC01A7EAB1E4EF
:103590004DD06B017C01ACEEB4EFA501940152D08B
:1035A000DC01CB018C0D9D1DAE1DBF1DB7FF03C0FF
:1035B0000197A109B04888839983AA83BB83BC0182
:1035C000CD019F77DF91CF91FF90EF90DF90CF906B
:1035D000BF90AF909F908F900895B7CF82E092E018
:1035E000B4CF60930202709303028093040290931D
:1035F00005020895052E97FB16F400940FD057FD91
:1036000005D024D007FC02D046F408C05095409560
:10361000309521953F4F4F4F5F4F0895909580957E
:10362000709561957F4F8F4F9F4F089531D0A59F23
:10363000900DB49F900DA49F800D911D11240895AD
:10364000B7FFF4CFF3DF821B930B0895A1E21A2E8C
:10365000AA1BBB1BFD010DC0AA1FBB1FEE1FFF1F36
:10366000A217B307E407F50720F0A21BB30BE40B86
:10367000F50B661F771F881F991F1A9469F76095CD
:103680007095809590959B01AC01BD01CF01089587
:10369000A29FB001B39FC001A39F700D811D112493
:1036A000911DB29F700D811D1124911D08955058D8
:1036B000BB27AA270ED075C166D130F06BD120F0A0
:1036C00031F49F3F11F41EF45BC10EF4E095E7FB6B
:1036D00051C1E92F77D180F3BA17620773078407C6
:1036E000950718F071F49EF58FC10EF4E0950B2E3E
:1036F000BA2FA02D0B01B90190010C01CA01A00144
:103700001124FF27591B99F0593F50F4503E68F19E
:103710001A16F040A22F232F342F4427585FF3CFDF
:10372000469537952795A795F0405395C9F77EF4B0
:103730001F16BA0B620B730B840BBAF09150A1F0F9
:10374000FF0FBB1F661F771F881FC2F70EC0BA0F7F
:10375000621F731F841F48F4879577956795B79507
:10376000F7959E3F08F0B3CF9395880F08F09927FF
:10377000EE0F979587950895D9D008F481E00895C4
:103780000CD00FC107D140F0FED030F021F45F3FE4
:1037900019F0F0C0511139C1F3C014D198F3992335
:1037A000C9F35523B1F3951B550BBB27AA27621705
:1037B0007307840738F09F5F5F4F220F331F441F4A
:1037C000AA1FA9F333D00E2E3AF0E0E830D0915082
:1037D0005040E695001CCAF729D0FE2F27D0660F6F
:1037E000771F881FBB1F261737074807AB07B0E8AE
:1037F00009F0BB0B802DBF01FF2793585F4F2AF0C4
:103800009E3F510568F0B6C000C15F3FECF3983EA3
:10381000DCF3869577956795B795F7959F5FC9F720
:10382000880F911D9695879597F90895E1E0660FA9
:10383000771F881FBB1F621773078407BA0720F022
:10384000621B730B840BBA0BEE1F88F7E09508958B
:1038500004D06894B111D9C00895BCD088F09F57A6
:1038600090F0B92F9927B751A0F0D1F0660F771FCC
:10387000881F991F1AF0BA95C9F712C0B13081F0AC
:10388000C3D0B1E00895C0C0672F782F8827B85FF4
:1038900039F0B93FCCF3869577956795B395D9F70D
:1038A0003EF490958095709561957F4F8F4F9F4F17
:1038B0000895E89409C097FB3EF490958095709523
:1038C00061957F4F8F4F9F4F9923A9F0F92F96E96C
:1038D000BB279395F695879577956795B795F111E1
:1038E000F8CFFAF4BB0F11F460FF1BC06F5F7F4F7E
:1038F0008F4F9F4F16C0882311F096E911C0772390
:1039000021F09EE8872F762F05C0662371F096E898
:10391000862F70E060E02AF09A95660F771F881F67
:10392000DAF7880F9695879597F90895990F00080B
:10393000550FAA0BE0E8FEEF16161706E807F90781
:10394000C0F012161306E407F50798F0621B730B1C
:10395000840B950B39F40A2661F0232B242B252B9D
:1039600021F408950A2609F4A140A6958FEF811D40
:10397000811D089597F99F6780E870E060E00895E1
:103980009FEF80EC089500240A9416161706180677
:103990000906089500240A94121613061406050653
:1039A0000895092E0394000C11F4882352F0BB0FE4
:1039B00040F4BF2B11F460FF04C06F5F7F4F8F4F47
:1039C0009F4F089557FD9058440F551F59F05F3F82
:1039D00071F04795880F97FB991F61F09F3F79F031
:1039E00087950895121613061406551FF2CF4695B3
:1039F000F1DF08C0161617061806991FF1CF869535
:103A00007105610508940895E894BB276627772718
:103A1000CB0197F908958ADF08F48FEF08950BD052
:103A2000C0CFB1DF28F0B6DF18F0952309F0A2CFA0
:103A3000A7CF1124EACFC6DFA0F3959FD1F3950F4E
:103A400050E0551F629FF001729FBB27F00DB11D22
:103A5000639FAA27F00DB11DAA1F649F6627B00DB2
:103A6000A11D661F829F2227B00DA11D621F739F9B
:103A7000B00DA11D621F839FA00D611D221F749FA9
:103A80003327A00D611D231F849F600D211D822FF0
:103A9000762F6A2F11249F5750408AF0E1F0882337
:103AA0004AF0EE0FFF1FBB1F661F771F881F915044
:103AB0005040A9F79E3F510570F05CCFA6CF5F3F05
:103AC000ECF3983EDCF3869577956795B795F79577
:103AD000E7959F5FC1F7FE2B880F911D96958795FF
:103AE00097F90895DB018F939F93A0DDBF91AF916C
:103AF000A29F800D911DA39F900DB29F900D112448
:103B00000895991B79E004C0991F961708F0961B39
:103B1000881F7A95C9F78095089597FB072E16F4AC
:103B2000009406D077FD08D019D007FC05D03EF4EC
:103B3000909581959F4F0895709561957F4F089559
:103B4000EE0FFF1F881F8BBF0790F691E02D199491
:103B50009FDDB7FF0895821B930B0895AA1BBB1B23
:103B600051E107C0AA1FBB1FA617B70710F0A61B7D
:103B7000B70B881F991F5A95A9F780959095BC019E
:103B8000CD01089581E090E0F89400C0F894FFCF53
:103B900039050100000001000200030004000500D7
:103BA00006000700080009000A000B000C000D00C9
:103BB0000E000F0010001100120013001400150079
:103BC00016001700180019001A001B001C001D0029
:103BD0001E001F00200021002200230024000000FE
:103BE00000004C0D4C0D4C0D150411040E0400008A
:103BF0000000E406A00608041504110405043804B6
:103C0000003131295A1B750A000029005300780041
:103C10008A00AE0000000000AD0C170C460CF30C3F
:103C2000770C550C690C5265643D003B204772656A
:103C3000656E3D003B20426C75653D003B2059653B
:103C40006C6C6F773D003B2057686974653D003BA5
:103C500020504F53313D003B20504F53323D003BED
:0E3C6000204C65644D6F64653D20000D0A0028
:00000001FF
